{
  "contractName": "Voting",
  "abi": [
    {
      "inputs": [
        {
          "internalType": "string[]",
          "name": "names",
          "type": "string[]"
        },
        {
          "internalType": "string[]",
          "name": "descUrls",
          "type": "string[]"
        },
        {
          "internalType": "string[]",
          "name": "picUrls",
          "type": "string[]"
        }
      ],
      "stateMutability": "nonpayable",
      "type": "constructor"
    },
    {
      "inputs": [],
      "name": "getCandidates",
      "outputs": [
        {
          "components": [
            {
              "internalType": "string",
              "name": "name",
              "type": "string"
            },
            {
              "internalType": "string",
              "name": "descUrl",
              "type": "string"
            },
            {
              "internalType": "string",
              "name": "picUrl",
              "type": "string"
            },
            {
              "internalType": "uint256",
              "name": "votes",
              "type": "uint256"
            }
          ],
          "internalType": "struct Voting.Candidate[]",
          "name": "",
          "type": "tuple[]"
        }
      ],
      "stateMutability": "view",
      "type": "function",
      "constant": true
    }
  ],
  "bytecode": "0x60806040523480156200001157600080fd5b5060405162000baf38038062000baf8339818101604052810190620000379190620004c0565b60005b83518110156200016d576000604051806080016040528086848151811062000067576200006662000579565b5b602002602001015181526020018584815181106200008a576200008962000579565b5b60200260200101518152602001848481518110620000ad57620000ac62000579565b5b6020026020010151815260200160008152509050600181908060018154018082558091505060019003906000526020600020906004020160009091909190915060008201518160000190805190602001906200010b92919062000177565b5060208201518160010190805190602001906200012a92919062000177565b5060408201518160020190805190602001906200014992919062000177565b506060820151816003015550505080806200016490620005e1565b9150506200003a565b5050505062000694565b82805462000185906200065e565b90600052602060002090601f016020900481019282620001a95760008555620001f5565b82601f10620001c457805160ff1916838001178555620001f5565b82800160010185558215620001f5579182015b82811115620001f4578251825591602001919060010190620001d7565b5b50905062000204919062000208565b5090565b5b808211156200022357600081600090555060010162000209565b5090565b6000604051905090565b600080fd5b600080fd5b600080fd5b6000601f19601f8301169050919050565b7f4e487b7100000000000000000000000000000000000000000000000000000000600052604160045260246000fd5b6200028b8262000240565b810181811067ffffffffffffffff82111715620002ad57620002ac62000251565b5b80604052505050565b6000620002c262000227565b9050620002d0828262000280565b919050565b600067ffffffffffffffff821115620002f357620002f262000251565b5b602082029050602081019050919050565b600080fd5b600080fd5b600067ffffffffffffffff8211156200032c576200032b62000251565b5b620003378262000240565b9050602081019050919050565b60005b838110156200036457808201518184015260208101905062000347565b8381111562000374576000848401525b50505050565b6000620003916200038b846200030e565b620002b6565b905082815260208101848484011115620003b057620003af62000309565b5b620003bd84828562000344565b509392505050565b600082601f830112620003dd57620003dc6200023b565b5b8151620003ef8482602086016200037a565b91505092915050565b60006200040f6200040984620002d5565b620002b6565b9050808382526020820190506020840283018581111562000435576200043462000304565b5b835b818110156200048357805167ffffffffffffffff8111156200045e576200045d6200023b565b5b8086016200046d8982620003c5565b8552602085019450505060208101905062000437565b5050509392505050565b600082601f830112620004a557620004a46200023b565b5b8151620004b7848260208601620003f8565b91505092915050565b600080600060608486031215620004dc57620004db62000231565b5b600084015167ffffffffffffffff811115620004fd57620004fc62000236565b5b6200050b868287016200048d565b935050602084015167ffffffffffffffff8111156200052f576200052e62000236565b5b6200053d868287016200048d565b925050604084015167ffffffffffffffff81111562000561576200056062000236565b5b6200056f868287016200048d565b9150509250925092565b7f4e487b7100000000000000000000000000000000000000000000000000000000600052603260045260246000fd5b7f4e487b7100000000000000000000000000000000000000000000000000000000600052601160045260246000fd5b6000819050919050565b6000620005ee82620005d7565b91507fffffffffffffffffffffffffffffffffffffffffffffffffffffffffffffffff821415620006245762000623620005a8565b5b600182019050919050565b7f4e487b7100000000000000000000000000000000000000000000000000000000600052602260045260246000fd5b600060028204905060018216806200067757607f821691505b602082108114156200068e576200068d6200062f565b5b50919050565b61050b80620006a46000396000f3fe608060405234801561001057600080fd5b506004361061002b5760003560e01c806306a49fce14610030575b600080fd5b61003861004e565b6040516100459190610452565b60405180910390f35b60606001805480602002602001604051908101604052809291908181526020016000905b8282101561026457838290600052602060002090600402016040518060800160405290816000820180546100a5906104a3565b80601f01602080910402602001604051908101604052809291908181526020018280546100d1906104a3565b801561011e5780601f106100f35761010080835404028352916020019161011e565b820191906000526020600020905b81548152906001019060200180831161010157829003601f168201915b50505050508152602001600182018054610137906104a3565b80601f0160208091040260200160405190810160405280929190818152602001828054610163906104a3565b80156101b05780601f10610185576101008083540402835291602001916101b0565b820191906000526020600020905b81548152906001019060200180831161019357829003601f168201915b505050505081526020016002820180546101c9906104a3565b80601f01602080910402602001604051908101604052809291908181526020018280546101f5906104a3565b80156102425780601f1061021757610100808354040283529160200191610242565b820191906000526020600020905b81548152906001019060200180831161022557829003601f168201915b5050505050815260200160038201548152505081526020019060010190610072565b50505050905090565b600081519050919050565b600082825260208201905092915050565b6000819050602082019050919050565b600081519050919050565b600082825260208201905092915050565b60005b838110156102d35780820151818401526020810190506102b8565b838111156102e2576000848401525b50505050565b6000601f19601f8301169050919050565b600061030482610299565b61030e81856102a4565b935061031e8185602086016102b5565b610327816102e8565b840191505092915050565b6000819050919050565b61034581610332565b82525050565b6000608083016000830151848203600086015261036882826102f9565b9150506020830151848203602086015261038282826102f9565b9150506040830151848203604086015261039c82826102f9565b91505060608301516103b1606086018261033c565b508091505092915050565b60006103c8838361034b565b905092915050565b6000602082019050919050565b60006103e88261026d565b6103f28185610278565b93508360208202850161040485610289565b8060005b85811015610440578484038952815161042185826103bc565b945061042c836103d0565b925060208a01995050600181019050610408565b50829750879550505050505092915050565b6000602082019050818103600083015261046c81846103dd565b905092915050565b7f4e487b7100000000000000000000000000000000000000000000000000000000600052602260045260246000fd5b600060028204905060018216806104bb57607f821691505b602082108114156104cf576104ce610474565b5b5091905056fea26469706673582212208709d524219829e93595855c6d5aba03758c7e0b83a5abe5835ef17912fb973964736f6c634300080a0033",
  "immutableReferences": {},
  "source": "// SPDX-License-Identifier: MIT\r\npragma solidity ^0.8.10;\r\n\r\ncontract Voting {\r\n  struct Candidate {\r\n    string name;\r\n    string descUrl;\r\n    string picUrl;\r\n    uint votes;\r\n  }\r\n  mapping(address => bool) hasVoted;\r\n  Candidate[] candidates;\r\n\r\n  constructor(\r\n    string[] memory names,\r\n    string[] memory descUrls,\r\n    string[] memory picUrls\r\n  ) public {\r\n\r\n    for (uint i = 0; i < names.length; i++) {\r\n      Candidate memory candidate = Candidate({\r\n        name: names[i],\r\n        descUrl: descUrls[i],\r\n        picUrl: picUrls[i],\r\n        votes: 0\r\n      });\r\n      candidates.push(candidate);\r\n    }\r\n  }\r\n\r\n  function getCandidates() public view returns (Candidate[] memory) {\r\n    return candidates;\r\n  }\r\n}",
  "sourcePath": "C:\\Users\\clipp\\OneDrive\\Documents\\Code\\SideProject\\VotingApp\\Contract\\contracts\\Voting.sol",
  "compiler": {
    "name": "solc",
    "version": "0.8.10+commit.fc410830.Emscripten.clang"
  },
  "schemaVersion": "3.4.4",
  "updatedAt": "2022-01-05T05:32:54.898Z",
  "networkType": "ethereum",
  "devdoc": {
    "kind": "dev",
    "methods": {},
    "version": 1
  },
  "userdoc": {
    "kind": "user",
    "methods": {},
    "version": 1
  }
}