{
  "contractName": "Voting",
  "abi": [
    {
      "inputs": [
        {
          "internalType": "string[]",
          "name": "names",
          "type": "string[]"
        },
        {
          "internalType": "string[]",
          "name": "descUrls",
          "type": "string[]"
        },
        {
          "internalType": "string[]",
          "name": "picUrls",
          "type": "string[]"
        }
      ],
      "stateMutability": "nonpayable",
      "type": "constructor"
    },
    {
      "anonymous": false,
      "inputs": [
        {
          "components": [
            {
              "internalType": "string",
              "name": "name",
              "type": "string"
            },
            {
              "internalType": "string",
              "name": "descUrl",
              "type": "string"
            },
            {
              "internalType": "string",
              "name": "picUrl",
              "type": "string"
            },
            {
              "internalType": "uint256",
              "name": "votes",
              "type": "uint256"
            }
          ],
          "indexed": false,
          "internalType": "struct Voting.Candidate",
          "name": "cadidate",
          "type": "tuple"
        }
      ],
      "name": "EndElection",
      "type": "event"
    },
    {
      "anonymous": false,
      "inputs": [],
      "name": "StartElection",
      "type": "event"
    },
    {
      "anonymous": false,
      "inputs": [],
      "name": "VoteCandidate",
      "type": "event"
    },
    {
      "inputs": [
        {
          "internalType": "uint256",
          "name": "",
          "type": "uint256"
        }
      ],
      "name": "candidates",
      "outputs": [
        {
          "internalType": "string",
          "name": "name",
          "type": "string"
        },
        {
          "internalType": "string",
          "name": "descUrl",
          "type": "string"
        },
        {
          "internalType": "string",
          "name": "picUrl",
          "type": "string"
        },
        {
          "internalType": "uint256",
          "name": "votes",
          "type": "uint256"
        }
      ],
      "stateMutability": "view",
      "type": "function",
      "constant": true
    },
    {
      "inputs": [],
      "name": "commissioner",
      "outputs": [
        {
          "internalType": "address",
          "name": "",
          "type": "address"
        }
      ],
      "stateMutability": "view",
      "type": "function",
      "constant": true
    },
    {
      "inputs": [],
      "name": "electionEnded",
      "outputs": [
        {
          "internalType": "bool",
          "name": "",
          "type": "bool"
        }
      ],
      "stateMutability": "view",
      "type": "function",
      "constant": true
    },
    {
      "inputs": [],
      "name": "electionStarted",
      "outputs": [
        {
          "internalType": "bool",
          "name": "",
          "type": "bool"
        }
      ],
      "stateMutability": "view",
      "type": "function",
      "constant": true
    },
    {
      "inputs": [
        {
          "internalType": "address",
          "name": "",
          "type": "address"
        }
      ],
      "name": "hasVoted",
      "outputs": [
        {
          "internalType": "bool",
          "name": "",
          "type": "bool"
        }
      ],
      "stateMutability": "view",
      "type": "function",
      "constant": true
    },
    {
      "inputs": [],
      "name": "winner",
      "outputs": [
        {
          "internalType": "string",
          "name": "name",
          "type": "string"
        },
        {
          "internalType": "string",
          "name": "descUrl",
          "type": "string"
        },
        {
          "internalType": "string",
          "name": "picUrl",
          "type": "string"
        },
        {
          "internalType": "uint256",
          "name": "votes",
          "type": "uint256"
        }
      ],
      "stateMutability": "view",
      "type": "function",
      "constant": true
    },
    {
      "inputs": [],
      "name": "getCandidates",
      "outputs": [
        {
          "components": [
            {
              "internalType": "string",
              "name": "name",
              "type": "string"
            },
            {
              "internalType": "string",
              "name": "descUrl",
              "type": "string"
            },
            {
              "internalType": "string",
              "name": "picUrl",
              "type": "string"
            },
            {
              "internalType": "uint256",
              "name": "votes",
              "type": "uint256"
            }
          ],
          "internalType": "struct Voting.Candidate[]",
          "name": "",
          "type": "tuple[]"
        }
      ],
      "stateMutability": "view",
      "type": "function",
      "constant": true
    },
    {
      "inputs": [
        {
          "internalType": "uint256",
          "name": "index",
          "type": "uint256"
        }
      ],
      "name": "getCandidate",
      "outputs": [
        {
          "components": [
            {
              "internalType": "string",
              "name": "name",
              "type": "string"
            },
            {
              "internalType": "string",
              "name": "descUrl",
              "type": "string"
            },
            {
              "internalType": "string",
              "name": "picUrl",
              "type": "string"
            },
            {
              "internalType": "uint256",
              "name": "votes",
              "type": "uint256"
            }
          ],
          "internalType": "struct Voting.Candidate",
          "name": "",
          "type": "tuple"
        }
      ],
      "stateMutability": "view",
      "type": "function",
      "constant": true
    },
    {
      "inputs": [
        {
          "internalType": "uint256",
          "name": "index",
          "type": "uint256"
        }
      ],
      "name": "voteCandidate",
      "outputs": [],
      "stateMutability": "nonpayable",
      "type": "function"
    },
    {
      "inputs": [],
      "name": "getHasVoted",
      "outputs": [
        {
          "internalType": "bool",
          "name": "",
          "type": "bool"
        }
      ],
      "stateMutability": "view",
      "type": "function",
      "constant": true
    },
    {
      "inputs": [],
      "name": "startElection",
      "outputs": [],
      "stateMutability": "nonpayable",
      "type": "function"
    },
    {
      "inputs": [],
      "name": "endElection",
      "outputs": [],
      "stateMutability": "nonpayable",
      "type": "function"
    }
  ],
  "bytecode": "0x60806040523480156200001157600080fd5b5060405162001e0b38038062001e0b833981810160405281019062000037919062000501565b60005b83518110156200016d5760006040518060800160405280868481518110620000675762000066620005ba565b5b602002602001015181526020018584815181106200008a5762000089620005ba565b5b60200260200101518152602001848481518110620000ad57620000ac620005ba565b5b6020026020010151815260200160008152509050600181908060018154018082558091505060019003906000526020600020906004020160009091909190915060008201518160000190805190602001906200010b929190620001b8565b5060208201518160010190805190602001906200012a929190620001b8565b50604082015181600201908051906020019062000149929190620001b8565b50606082015181600301555050508080620001649062000622565b9150506200003a565b5033600660026101000a81548173ffffffffffffffffffffffffffffffffffffffff021916908373ffffffffffffffffffffffffffffffffffffffff160217905550505050620006d5565b828054620001c6906200069f565b90600052602060002090601f016020900481019282620001ea576000855562000236565b82601f106200020557805160ff191683800117855562000236565b8280016001018555821562000236579182015b828111156200023557825182559160200191906001019062000218565b5b50905062000245919062000249565b5090565b5b80821115620002645760008160009055506001016200024a565b5090565b6000604051905090565b600080fd5b600080fd5b600080fd5b6000601f19601f8301169050919050565b7f4e487b7100000000000000000000000000000000000000000000000000000000600052604160045260246000fd5b620002cc8262000281565b810181811067ffffffffffffffff82111715620002ee57620002ed62000292565b5b80604052505050565b60006200030362000268565b9050620003118282620002c1565b919050565b600067ffffffffffffffff82111562000334576200033362000292565b5b602082029050602081019050919050565b600080fd5b600080fd5b600067ffffffffffffffff8211156200036d576200036c62000292565b5b620003788262000281565b9050602081019050919050565b60005b83811015620003a557808201518184015260208101905062000388565b83811115620003b5576000848401525b50505050565b6000620003d2620003cc846200034f565b620002f7565b905082815260208101848484011115620003f157620003f06200034a565b5b620003fe84828562000385565b509392505050565b600082601f8301126200041e576200041d6200027c565b5b815162000430848260208601620003bb565b91505092915050565b6000620004506200044a8462000316565b620002f7565b9050808382526020820190506020840283018581111562000476576200047562000345565b5b835b81811015620004c457805167ffffffffffffffff8111156200049f576200049e6200027c565b5b808601620004ae898262000406565b8552602085019450505060208101905062000478565b5050509392505050565b600082601f830112620004e657620004e56200027c565b5b8151620004f884826020860162000439565b91505092915050565b6000806000606084860312156200051d576200051c62000272565b5b600084015167ffffffffffffffff8111156200053e576200053d62000277565b5b6200054c86828701620004ce565b935050602084015167ffffffffffffffff81111562000570576200056f62000277565b5b6200057e86828701620004ce565b925050604084015167ffffffffffffffff811115620005a257620005a162000277565b5b620005b086828701620004ce565b9150509250925092565b7f4e487b7100000000000000000000000000000000000000000000000000000000600052603260045260246000fd5b7f4e487b7100000000000000000000000000000000000000000000000000000000600052601160045260246000fd5b6000819050919050565b60006200062f8262000618565b91507fffffffffffffffffffffffffffffffffffffffffffffffffffffffffffffffff821415620006655762000664620005e9565b5b600182019050919050565b7f4e487b7100000000000000000000000000000000000000000000000000000000600052602260045260246000fd5b60006002820490506001821680620006b857607f821691505b60208210811415620006cf57620006ce62000670565b5b50919050565b61172680620006e56000396000f3fe608060405234801561001057600080fd5b50600436106100b45760003560e01c80638c08a4dc116100715780638c08a4dc1461017e5780639afd20e41461019a578063c94ca9e3146101b8578063d5346da1146101d6578063dfbf53ae146101f4578063f189449814610215576100b4565b806306a49fce146100b957806309eef43e146100d75780633477ee2e1461010757806335b8e8201461013a57806359f784681461016a57806362d73eb814610174575b600080fd5b6100c1610233565b6040516100ce91906111a5565b60405180910390f35b6100f160048036038101906100ec919061122a565b610452565b6040516100fe9190611272565b60405180910390f35b610121600480360381019061011c91906112b9565b610472565b604051610131949392919061133f565b60405180910390f35b610154600480360381019061014f91906112b9565b61064a565b604051610161919061140a565b60405180910390f35b610172610846565b005b61017c6108f7565b005b610198600480360381019061019391906112b9565b6109ea565b005b6101a2610b33565b6040516101af9190611272565b60405180910390f35b6101c0610b86565b6040516101cd9190611272565b60405180910390f35b6101de610b99565b6040516101eb9190611272565b60405180910390f35b6101fc610bac565b60405161020c949392919061133f565b60405180910390f35b61021d610d62565b60405161022a919061143b565b60405180910390f35b60606001805480602002602001604051908101604052809291908181526020016000905b82821015610449578382906000526020600020906004020160405180608001604052908160008201805461028a90611485565b80601f01602080910402602001604051908101604052809291908181526020018280546102b690611485565b80156103035780601f106102d857610100808354040283529160200191610303565b820191906000526020600020905b8154815290600101906020018083116102e657829003601f168201915b5050505050815260200160018201805461031c90611485565b80601f016020809104026020016040519081016040528092919081815260200182805461034890611485565b80156103955780601f1061036a57610100808354040283529160200191610395565b820191906000526020600020905b81548152906001019060200180831161037857829003601f168201915b505050505081526020016002820180546103ae90611485565b80601f01602080910402602001604051908101604052809291908181526020018280546103da90611485565b80156104275780601f106103fc57610100808354040283529160200191610427565b820191906000526020600020905b81548152906001019060200180831161040a57829003601f168201915b5050505050815260200160038201548152505081526020019060010190610257565b50505050905090565b60006020528060005260406000206000915054906101000a900460ff1681565b6001818154811061048257600080fd5b90600052602060002090600402016000915090508060000180546104a590611485565b80601f01602080910402602001604051908101604052809291908181526020018280546104d190611485565b801561051e5780601f106104f35761010080835404028352916020019161051e565b820191906000526020600020905b81548152906001019060200180831161050157829003601f168201915b50505050509080600101805461053390611485565b80601f016020809104026020016040519081016040528092919081815260200182805461055f90611485565b80156105ac5780601f10610581576101008083540402835291602001916105ac565b820191906000526020600020905b81548152906001019060200180831161058f57829003601f168201915b5050505050908060020180546105c190611485565b80601f01602080910402602001604051908101604052809291908181526020018280546105ed90611485565b801561063a5780601f1061060f5761010080835404028352916020019161063a565b820191906000526020600020905b81548152906001019060200180831161061d57829003601f168201915b5050505050908060030154905084565b610652610eee565b60018281548110610666576106656114b7565b5b906000526020600020906004020160405180608001604052908160008201805461068f90611485565b80601f01602080910402602001604051908101604052809291908181526020018280546106bb90611485565b80156107085780601f106106dd57610100808354040283529160200191610708565b820191906000526020600020905b8154815290600101906020018083116106eb57829003601f168201915b5050505050815260200160018201805461072190611485565b80601f016020809104026020016040519081016040528092919081815260200182805461074d90611485565b801561079a5780601f1061076f5761010080835404028352916020019161079a565b820191906000526020600020905b81548152906001019060200180831161077d57829003601f168201915b505050505081526020016002820180546107b390611485565b80601f01602080910402602001604051908101604052809291908181526020018280546107df90611485565b801561082c5780601f106108015761010080835404028352916020019161082c565b820191906000526020600020905b81548152906001019060200180831161080f57829003601f168201915b505050505081526020016003820154815250509050919050565b600660029054906101000a900473ffffffffffffffffffffffffffffffffffffffff1673ffffffffffffffffffffffffffffffffffffffff163373ffffffffffffffffffffffffffffffffffffffff16146108a057600080fd5b600660009054906101000a900460ff1680156108c95750600660019054906101000a900460ff16155b6108d257600080fd5b6001600660016101000a81548160ff0219169083151502179055506108f5610d88565b565b600660029054906101000a900473ffffffffffffffffffffffffffffffffffffffff1673ffffffffffffffffffffffffffffffffffffffff163373ffffffffffffffffffffffffffffffffffffffff161461095157600080fd5b600660009054906101000a900460ff1615801561097b5750600660019054906101000a900460ff16155b61098457600080fd5b6001600660006101000a81548160ff021916908315150217905550600660009054906101000a900460ff166109bc576109bb6114e6565b5b7f9126977512e2eb0494c6f6246e3472c43f12151793922f51f4fd4c3c877d607760405160405180910390a1565b6000803373ffffffffffffffffffffffffffffffffffffffff1673ffffffffffffffffffffffffffffffffffffffff16815260200190815260200160002060009054906101000a900460ff1615610a4057600080fd5b600660009054906101000a900460ff168015610a695750600660019054906101000a900460ff16155b610a7257600080fd5b60018181548110610a8657610a856114b7565b5b90600052602060002090600402016003016000815480929190610aa890611544565b919050555060016000803373ffffffffffffffffffffffffffffffffffffffff1673ffffffffffffffffffffffffffffffffffffffff16815260200190815260200160002060006101000a81548160ff0219169083151502179055507f388cc1bf0ff3f5898f14ddef572d4f9770d94d03db16642450d20810c65293d660405160405180910390a150565b60008060003373ffffffffffffffffffffffffffffffffffffffff1673ffffffffffffffffffffffffffffffffffffffff16815260200190815260200160002060009054906101000a900460ff16905090565b600660019054906101000a900460ff1681565b600660009054906101000a900460ff1681565b6002806000018054610bbd90611485565b80601f0160208091040260200160405190810160405280929190818152602001828054610be990611485565b8015610c365780601f10610c0b57610100808354040283529160200191610c36565b820191906000526020600020905b815481529060010190602001808311610c1957829003601f168201915b505050505090806001018054610c4b90611485565b80601f0160208091040260200160405190810160405280929190818152602001828054610c7790611485565b8015610cc45780601f10610c9957610100808354040283529160200191610cc4565b820191906000526020600020905b815481529060010190602001808311610ca757829003601f168201915b505050505090806002018054610cd990611485565b80601f0160208091040260200160405190810160405280929190818152602001828054610d0590611485565b8015610d525780601f10610d2757610100808354040283529160200191610d52565b820191906000526020600020905b815481529060010190602001808311610d3557829003601f168201915b5050505050908060030154905084565b600660029054906101000a900473ffffffffffffffffffffffffffffffffffffffff1681565b600660019054906101000a900460ff16610da157600080fd5b60008060005b600180549050811015610e20578160018281548110610dc957610dc86114b7565b5b9060005260206000209060040201600301541115610e0d5780925060018181548110610df857610df76114b7565b5b90600052602060002090600402016003015491505b8080610e1890611544565b915050610da7565b5060018281548110610e3557610e346114b7565b5b906000526020600020906004020160026000820181600001908054610e5990611485565b610e64929190610f16565b506001820181600101908054610e7990611485565b610e84929190610f16565b506002820181600201908054610e9990611485565b610ea4929190610f16565b50600382015481600301559050507faa54ffbbb9e1950496c6e3006d930cadcb4c627aa6dae96887389201d2a20d696002604051610ee291906116ce565b60405180910390a15050565b6040518060800160405280606081526020016060815260200160608152602001600081525090565b828054610f2290611485565b90600052602060002090601f016020900481019282610f445760008555610f92565b82601f10610f555780548555610f92565b82800160010185558215610f9257600052602060002091601f016020900482015b82811115610f91578254825591600101919060010190610f76565b5b509050610f9f9190610fa3565b5090565b5b80821115610fbc576000816000905550600101610fa4565b5090565b600081519050919050565b600082825260208201905092915050565b6000819050602082019050919050565b600081519050919050565b600082825260208201905092915050565b60005b8381101561102657808201518184015260208101905061100b565b83811115611035576000848401525b50505050565b6000601f19601f8301169050919050565b600061105782610fec565b6110618185610ff7565b9350611071818560208601611008565b61107a8161103b565b840191505092915050565b6000819050919050565b61109881611085565b82525050565b600060808301600083015184820360008601526110bb828261104c565b915050602083015184820360208601526110d5828261104c565b915050604083015184820360408601526110ef828261104c565b9150506060830151611104606086018261108f565b508091505092915050565b600061111b838361109e565b905092915050565b6000602082019050919050565b600061113b82610fc0565b6111458185610fcb565b93508360208202850161115785610fdc565b8060005b858110156111935784840389528151611174858261110f565b945061117f83611123565b925060208a0199505060018101905061115b565b50829750879550505050505092915050565b600060208201905081810360008301526111bf8184611130565b905092915050565b600080fd5b600073ffffffffffffffffffffffffffffffffffffffff82169050919050565b60006111f7826111cc565b9050919050565b611207816111ec565b811461121257600080fd5b50565b600081359050611224816111fe565b92915050565b6000602082840312156112405761123f6111c7565b5b600061124e84828501611215565b91505092915050565b60008115159050919050565b61126c81611257565b82525050565b60006020820190506112876000830184611263565b92915050565b61129681611085565b81146112a157600080fd5b50565b6000813590506112b38161128d565b92915050565b6000602082840312156112cf576112ce6111c7565b5b60006112dd848285016112a4565b91505092915050565b600082825260208201905092915050565b600061130282610fec565b61130c81856112e6565b935061131c818560208601611008565b6113258161103b565b840191505092915050565b61133981611085565b82525050565b6000608082019050818103600083015261135981876112f7565b9050818103602083015261136d81866112f7565b9050818103604083015261138181856112f7565b90506113906060830184611330565b95945050505050565b600060808301600083015184820360008601526113b6828261104c565b915050602083015184820360208601526113d0828261104c565b915050604083015184820360408601526113ea828261104c565b91505060608301516113ff606086018261108f565b508091505092915050565b600060208201905081810360008301526114248184611399565b905092915050565b611435816111ec565b82525050565b6000602082019050611450600083018461142c565b92915050565b7f4e487b7100000000000000000000000000000000000000000000000000000000600052602260045260246000fd5b6000600282049050600182168061149d57607f821691505b602082108114156114b1576114b0611456565b5b50919050565b7f4e487b7100000000000000000000000000000000000000000000000000000000600052603260045260246000fd5b7f4e487b7100000000000000000000000000000000000000000000000000000000600052600160045260246000fd5b7f4e487b7100000000000000000000000000000000000000000000000000000000600052601160045260246000fd5b600061154f82611085565b91507fffffffffffffffffffffffffffffffffffffffffffffffffffffffffffffffff82141561158257611581611515565b5b600182019050919050565b60008190508160005260206000209050919050565b600081546115af81611485565b6115b98186610ff7565b945060018216600081146115d457600181146115e657611619565b60ff1983168652602086019350611619565b6115ef8561158d565b60005b83811015611611578154818901526001820191506020810190506115f2565b808801955050505b50505092915050565b60008160001c9050919050565b6000819050919050565b600061164c61164783611622565b61162f565b9050919050565b6000608083016000808401858303600087015261167083826115a2565b92505060018401858303602087015261168983826115a2565b9250506002840185830360408701526116a283826115a2565b925050600384015490506116b581611639565b6116c2606087018261108f565b50819250505092915050565b600060208201905081810360008301526116e88184611653565b90509291505056fea2646970667358221220b44fc6c9269b99fbd5bef1933e93cbbd25bd2486f1d0c6202326cdb5bc27654964736f6c634300080a0033",
  "immutableReferences": {},
  "source": "// SPDX-License-Identifier: MIT\r\npragma solidity ^0.8.10;\r\n\r\ncontract Voting {\r\n  struct Candidate {\r\n    string name;\r\n    string descUrl;\r\n    string picUrl;\r\n    uint votes;\r\n  }\r\n  mapping(address => bool) public hasVoted;\r\n  Candidate[] public candidates;\r\n  Candidate public winner;\r\n  bool public electionStarted;\r\n  bool public electionEnded;\r\n  address public commissioner;\r\n\r\n  event VoteCandidate();\r\n  event StartElection();\r\n  event EndElection(Candidate cadidate);\r\n\r\n  constructor(\r\n    string[] memory names,\r\n    string[] memory descUrls,\r\n    string[] memory picUrls\r\n  ) public {\r\n\r\n    for (uint i = 0; i < names.length; i++) {\r\n      Candidate memory candidate = Candidate({\r\n        name: names[i],\r\n        descUrl: descUrls[i],\r\n        picUrl: picUrls[i],\r\n        votes: 0\r\n      });\r\n      candidates.push(candidate);\r\n    }\r\n    commissioner = msg.sender;\r\n  }\r\n\r\n  modifier hasNotVoted {\r\n    require(!hasVoted[msg.sender]);\r\n    _;\r\n  }\r\n\r\n  modifier isCommissioner {\r\n    require(msg.sender == commissioner);\r\n    _;\r\n  }\r\n  \r\n  function getCandidates() public view returns (Candidate[] memory) {\r\n    return candidates;\r\n  }\r\n\r\n  function getCandidate(uint index) public view returns (Candidate memory) {\r\n    return candidates[index];\r\n  }\r\n\r\n  function voteCandidate(uint index) external hasNotVoted {\r\n    require(electionStarted && !electionEnded);\r\n    candidates[index].votes++;\r\n    hasVoted[msg.sender] = true;\r\n    emit VoteCandidate();\r\n  }\r\n\r\n  function getHasVoted() public view returns (bool) {\r\n    return hasVoted[msg.sender];\r\n  }\r\n\r\n  function startElection() external isCommissioner {\r\n    require(!electionStarted && !electionEnded);\r\n    electionStarted = true;\r\n    assert(electionStarted);\r\n    emit StartElection();\r\n  }\r\n\r\n  function endElection() external isCommissioner {\r\n    require(electionStarted && !electionEnded);\r\n    electionEnded = true;\r\n    setWinner();\r\n  }\r\n\r\n  function setWinner() private {\r\n    require(electionEnded);\r\n    uint winnerIndex = 0;\r\n    uint winnerVotes = 0;\r\n    for (uint i = 0; i < candidates.length; i++) {\r\n      if (candidates[i].votes > winnerVotes) {\r\n        winnerIndex = i;\r\n        winnerVotes = candidates[i].votes;\r\n      }\r\n    }\r\n    winner = candidates[winnerIndex];\r\n    emit EndElection(winner);\r\n  }\r\n  \r\n}",
  "sourcePath": "C:\\Users\\clipp\\OneDrive\\Documents\\Code\\SideProject\\VotingApp\\Contract\\contracts\\Voting.sol",
  "compiler": {
    "name": "solc",
    "version": "0.8.10+commit.fc410830.Emscripten.clang"
  },
  "schemaVersion": "3.4.4",
  "updatedAt": "2022-01-10T05:59:26.860Z",
  "networkType": "ethereum",
  "devdoc": {
    "kind": "dev",
    "methods": {},
    "version": 1
  },
  "userdoc": {
    "kind": "user",
    "methods": {},
    "version": 1
  }
}