{
  "contractName": "Voting",
  "abi": [
    {
      "inputs": [
        {
          "internalType": "string[]",
          "name": "names",
          "type": "string[]"
        },
        {
          "internalType": "string[]",
          "name": "descUrls",
          "type": "string[]"
        },
        {
          "internalType": "string[]",
          "name": "picUrls",
          "type": "string[]"
        }
      ],
      "stateMutability": "nonpayable",
      "type": "constructor"
    },
    {
      "inputs": [
        {
          "internalType": "uint256",
          "name": "",
          "type": "uint256"
        }
      ],
      "name": "candidates",
      "outputs": [
        {
          "internalType": "string",
          "name": "name",
          "type": "string"
        },
        {
          "internalType": "string",
          "name": "descUrl",
          "type": "string"
        },
        {
          "internalType": "string",
          "name": "picUrl",
          "type": "string"
        },
        {
          "internalType": "uint256",
          "name": "votes",
          "type": "uint256"
        }
      ],
      "stateMutability": "view",
      "type": "function",
      "constant": true
    },
    {
      "inputs": [],
      "name": "commissioner",
      "outputs": [
        {
          "internalType": "address",
          "name": "",
          "type": "address"
        }
      ],
      "stateMutability": "view",
      "type": "function",
      "constant": true
    },
    {
      "inputs": [],
      "name": "electionEnded",
      "outputs": [
        {
          "internalType": "bool",
          "name": "",
          "type": "bool"
        }
      ],
      "stateMutability": "view",
      "type": "function",
      "constant": true
    },
    {
      "inputs": [],
      "name": "electionStarted",
      "outputs": [
        {
          "internalType": "bool",
          "name": "",
          "type": "bool"
        }
      ],
      "stateMutability": "view",
      "type": "function",
      "constant": true
    },
    {
      "inputs": [
        {
          "internalType": "address",
          "name": "",
          "type": "address"
        }
      ],
      "name": "hasVoted",
      "outputs": [
        {
          "internalType": "bool",
          "name": "",
          "type": "bool"
        }
      ],
      "stateMutability": "view",
      "type": "function",
      "constant": true
    },
    {
      "inputs": [],
      "name": "winner",
      "outputs": [
        {
          "internalType": "string",
          "name": "name",
          "type": "string"
        },
        {
          "internalType": "string",
          "name": "descUrl",
          "type": "string"
        },
        {
          "internalType": "string",
          "name": "picUrl",
          "type": "string"
        },
        {
          "internalType": "uint256",
          "name": "votes",
          "type": "uint256"
        }
      ],
      "stateMutability": "view",
      "type": "function",
      "constant": true
    },
    {
      "inputs": [],
      "name": "getCandidates",
      "outputs": [
        {
          "components": [
            {
              "internalType": "string",
              "name": "name",
              "type": "string"
            },
            {
              "internalType": "string",
              "name": "descUrl",
              "type": "string"
            },
            {
              "internalType": "string",
              "name": "picUrl",
              "type": "string"
            },
            {
              "internalType": "uint256",
              "name": "votes",
              "type": "uint256"
            }
          ],
          "internalType": "struct Voting.Candidate[]",
          "name": "",
          "type": "tuple[]"
        }
      ],
      "stateMutability": "view",
      "type": "function",
      "constant": true
    },
    {
      "inputs": [
        {
          "internalType": "uint256",
          "name": "index",
          "type": "uint256"
        }
      ],
      "name": "getCandidate",
      "outputs": [
        {
          "components": [
            {
              "internalType": "string",
              "name": "name",
              "type": "string"
            },
            {
              "internalType": "string",
              "name": "descUrl",
              "type": "string"
            },
            {
              "internalType": "string",
              "name": "picUrl",
              "type": "string"
            },
            {
              "internalType": "uint256",
              "name": "votes",
              "type": "uint256"
            }
          ],
          "internalType": "struct Voting.Candidate",
          "name": "",
          "type": "tuple"
        }
      ],
      "stateMutability": "view",
      "type": "function",
      "constant": true
    },
    {
      "inputs": [
        {
          "internalType": "uint256",
          "name": "index",
          "type": "uint256"
        }
      ],
      "name": "voteCandidate",
      "outputs": [],
      "stateMutability": "nonpayable",
      "type": "function"
    },
    {
      "inputs": [],
      "name": "getHasVoted",
      "outputs": [
        {
          "internalType": "bool",
          "name": "",
          "type": "bool"
        }
      ],
      "stateMutability": "view",
      "type": "function",
      "constant": true
    },
    {
      "inputs": [],
      "name": "startElection",
      "outputs": [],
      "stateMutability": "nonpayable",
      "type": "function"
    },
    {
      "inputs": [],
      "name": "endElection",
      "outputs": [],
      "stateMutability": "nonpayable",
      "type": "function"
    }
  ],
  "bytecode": "0x60806040523480156200001157600080fd5b5060405162001c1838038062001c18833981810160405281019062000037919062000501565b60005b83518110156200016d5760006040518060800160405280868481518110620000675762000066620005ba565b5b602002602001015181526020018584815181106200008a5762000089620005ba565b5b60200260200101518152602001848481518110620000ad57620000ac620005ba565b5b6020026020010151815260200160008152509050600181908060018154018082558091505060019003906000526020600020906004020160009091909190915060008201518160000190805190602001906200010b929190620001b8565b5060208201518160010190805190602001906200012a929190620001b8565b50604082015181600201908051906020019062000149929190620001b8565b50606082015181600301555050508080620001649062000622565b9150506200003a565b5033600660026101000a81548173ffffffffffffffffffffffffffffffffffffffff021916908373ffffffffffffffffffffffffffffffffffffffff160217905550505050620006d5565b828054620001c6906200069f565b90600052602060002090601f016020900481019282620001ea576000855562000236565b82601f106200020557805160ff191683800117855562000236565b8280016001018555821562000236579182015b828111156200023557825182559160200191906001019062000218565b5b50905062000245919062000249565b5090565b5b80821115620002645760008160009055506001016200024a565b5090565b6000604051905090565b600080fd5b600080fd5b600080fd5b6000601f19601f8301169050919050565b7f4e487b7100000000000000000000000000000000000000000000000000000000600052604160045260246000fd5b620002cc8262000281565b810181811067ffffffffffffffff82111715620002ee57620002ed62000292565b5b80604052505050565b60006200030362000268565b9050620003118282620002c1565b919050565b600067ffffffffffffffff82111562000334576200033362000292565b5b602082029050602081019050919050565b600080fd5b600080fd5b600067ffffffffffffffff8211156200036d576200036c62000292565b5b620003788262000281565b9050602081019050919050565b60005b83811015620003a557808201518184015260208101905062000388565b83811115620003b5576000848401525b50505050565b6000620003d2620003cc846200034f565b620002f7565b905082815260208101848484011115620003f157620003f06200034a565b5b620003fe84828562000385565b509392505050565b600082601f8301126200041e576200041d6200027c565b5b815162000430848260208601620003bb565b91505092915050565b6000620004506200044a8462000316565b620002f7565b9050808382526020820190506020840283018581111562000476576200047562000345565b5b835b81811015620004c457805167ffffffffffffffff8111156200049f576200049e6200027c565b5b808601620004ae898262000406565b8552602085019450505060208101905062000478565b5050509392505050565b600082601f830112620004e657620004e56200027c565b5b8151620004f884826020860162000439565b91505092915050565b6000806000606084860312156200051d576200051c62000272565b5b600084015167ffffffffffffffff8111156200053e576200053d62000277565b5b6200054c86828701620004ce565b935050602084015167ffffffffffffffff81111562000570576200056f62000277565b5b6200057e86828701620004ce565b925050604084015167ffffffffffffffff811115620005a257620005a162000277565b5b620005b086828701620004ce565b9150509250925092565b7f4e487b7100000000000000000000000000000000000000000000000000000000600052603260045260246000fd5b7f4e487b7100000000000000000000000000000000000000000000000000000000600052601160045260246000fd5b6000819050919050565b60006200062f8262000618565b91507fffffffffffffffffffffffffffffffffffffffffffffffffffffffffffffffff821415620006655762000664620005e9565b5b600182019050919050565b7f4e487b7100000000000000000000000000000000000000000000000000000000600052602260045260246000fd5b60006002820490506001821680620006b857607f821691505b60208210811415620006cf57620006ce62000670565b5b50919050565b61153380620006e56000396000f3fe608060405234801561001057600080fd5b50600436106100b45760003560e01c80638c08a4dc116100715780638c08a4dc1461017e5780639afd20e41461019a578063c94ca9e3146101b8578063d5346da1146101d6578063dfbf53ae146101f4578063f189449814610215576100b4565b806306a49fce146100b957806309eef43e146100d75780633477ee2e1461010757806335b8e8201461013a57806359f784681461016a57806362d73eb814610174575b600080fd5b6100c1610233565b6040516100ce9190611115565b60405180910390f35b6100f160048036038101906100ec919061119a565b610452565b6040516100fe91906111e2565b60405180910390f35b610121600480360381019061011c9190611229565b610472565b60405161013194939291906112af565b60405180910390f35b610154600480360381019061014f9190611229565b61064a565b604051610161919061137a565b60405180910390f35b610172610846565b005b61017c6108f7565b005b61019860048036038101906101939190611229565b6109be565b005b6101a2610adb565b6040516101af91906111e2565b60405180910390f35b6101c0610b2e565b6040516101cd91906111e2565b60405180910390f35b6101de610b41565b6040516101eb91906111e2565b60405180910390f35b6101fc610b54565b60405161020c94939291906112af565b60405180910390f35b61021d610d0a565b60405161022a91906113ab565b60405180910390f35b60606001805480602002602001604051908101604052809291908181526020016000905b82821015610449578382906000526020600020906004020160405180608001604052908160008201805461028a906113f5565b80601f01602080910402602001604051908101604052809291908181526020018280546102b6906113f5565b80156103035780601f106102d857610100808354040283529160200191610303565b820191906000526020600020905b8154815290600101906020018083116102e657829003601f168201915b5050505050815260200160018201805461031c906113f5565b80601f0160208091040260200160405190810160405280929190818152602001828054610348906113f5565b80156103955780601f1061036a57610100808354040283529160200191610395565b820191906000526020600020905b81548152906001019060200180831161037857829003601f168201915b505050505081526020016002820180546103ae906113f5565b80601f01602080910402602001604051908101604052809291908181526020018280546103da906113f5565b80156104275780601f106103fc57610100808354040283529160200191610427565b820191906000526020600020905b81548152906001019060200180831161040a57829003601f168201915b5050505050815260200160038201548152505081526020019060010190610257565b50505050905090565b60006020528060005260406000206000915054906101000a900460ff1681565b6001818154811061048257600080fd5b90600052602060002090600402016000915090508060000180546104a5906113f5565b80601f01602080910402602001604051908101604052809291908181526020018280546104d1906113f5565b801561051e5780601f106104f35761010080835404028352916020019161051e565b820191906000526020600020905b81548152906001019060200180831161050157829003601f168201915b505050505090806001018054610533906113f5565b80601f016020809104026020016040519081016040528092919081815260200182805461055f906113f5565b80156105ac5780601f10610581576101008083540402835291602001916105ac565b820191906000526020600020905b81548152906001019060200180831161058f57829003601f168201915b5050505050908060020180546105c1906113f5565b80601f01602080910402602001604051908101604052809291908181526020018280546105ed906113f5565b801561063a5780601f1061060f5761010080835404028352916020019161063a565b820191906000526020600020905b81548152906001019060200180831161061d57829003601f168201915b5050505050908060030154905084565b610652610e5e565b6001828154811061066657610665611427565b5b906000526020600020906004020160405180608001604052908160008201805461068f906113f5565b80601f01602080910402602001604051908101604052809291908181526020018280546106bb906113f5565b80156107085780601f106106dd57610100808354040283529160200191610708565b820191906000526020600020905b8154815290600101906020018083116106eb57829003601f168201915b50505050508152602001600182018054610721906113f5565b80601f016020809104026020016040519081016040528092919081815260200182805461074d906113f5565b801561079a5780601f1061076f5761010080835404028352916020019161079a565b820191906000526020600020905b81548152906001019060200180831161077d57829003601f168201915b505050505081526020016002820180546107b3906113f5565b80601f01602080910402602001604051908101604052809291908181526020018280546107df906113f5565b801561082c5780601f106108015761010080835404028352916020019161082c565b820191906000526020600020905b81548152906001019060200180831161080f57829003601f168201915b505050505081526020016003820154815250509050919050565b600660029054906101000a900473ffffffffffffffffffffffffffffffffffffffff1673ffffffffffffffffffffffffffffffffffffffff163373ffffffffffffffffffffffffffffffffffffffff16146108a057600080fd5b600660009054906101000a900460ff1680156108c95750600660019054906101000a900460ff16155b6108d257600080fd5b6001600660016101000a81548160ff0219169083151502179055506108f5610d30565b565b600660029054906101000a900473ffffffffffffffffffffffffffffffffffffffff1673ffffffffffffffffffffffffffffffffffffffff163373ffffffffffffffffffffffffffffffffffffffff161461095157600080fd5b600660009054906101000a900460ff1615801561097b5750600660019054906101000a900460ff16155b61098457600080fd5b6001600660006101000a81548160ff021916908315150217905550600660009054906101000a900460ff166109bc576109bb611456565b5b565b6000803373ffffffffffffffffffffffffffffffffffffffff1673ffffffffffffffffffffffffffffffffffffffff16815260200190815260200160002060009054906101000a900460ff1615610a1457600080fd5b600660009054906101000a900460ff168015610a3d5750600660019054906101000a900460ff16155b610a4657600080fd5b60018181548110610a5a57610a59611427565b5b90600052602060002090600402016003016000815480929190610a7c906114b4565b919050555060016000803373ffffffffffffffffffffffffffffffffffffffff1673ffffffffffffffffffffffffffffffffffffffff16815260200190815260200160002060006101000a81548160ff02191690831515021790555050565b60008060003373ffffffffffffffffffffffffffffffffffffffff1673ffffffffffffffffffffffffffffffffffffffff16815260200190815260200160002060009054906101000a900460ff16905090565b600660019054906101000a900460ff1681565b600660009054906101000a900460ff1681565b6002806000018054610b65906113f5565b80601f0160208091040260200160405190810160405280929190818152602001828054610b91906113f5565b8015610bde5780601f10610bb357610100808354040283529160200191610bde565b820191906000526020600020905b815481529060010190602001808311610bc157829003601f168201915b505050505090806001018054610bf3906113f5565b80601f0160208091040260200160405190810160405280929190818152602001828054610c1f906113f5565b8015610c6c5780601f10610c4157610100808354040283529160200191610c6c565b820191906000526020600020905b815481529060010190602001808311610c4f57829003601f168201915b505050505090806002018054610c81906113f5565b80601f0160208091040260200160405190810160405280929190818152602001828054610cad906113f5565b8015610cfa5780601f10610ccf57610100808354040283529160200191610cfa565b820191906000526020600020905b815481529060010190602001808311610cdd57829003601f168201915b5050505050908060030154905084565b600660029054906101000a900473ffffffffffffffffffffffffffffffffffffffff1681565b600660019054906101000a900460ff16610d4957600080fd5b60008060005b600180549050811015610dc8578160018281548110610d7157610d70611427565b5b9060005260206000209060040201600301541115610db55780925060018181548110610da057610d9f611427565b5b90600052602060002090600402016003015491505b8080610dc0906114b4565b915050610d4f565b5060018281548110610ddd57610ddc611427565b5b906000526020600020906004020160026000820181600001908054610e01906113f5565b610e0c929190610e86565b506001820181600101908054610e21906113f5565b610e2c929190610e86565b506002820181600201908054610e41906113f5565b610e4c929190610e86565b50600382015481600301559050505050565b6040518060800160405280606081526020016060815260200160608152602001600081525090565b828054610e92906113f5565b90600052602060002090601f016020900481019282610eb45760008555610f02565b82601f10610ec55780548555610f02565b82800160010185558215610f0257600052602060002091601f016020900482015b82811115610f01578254825591600101919060010190610ee6565b5b509050610f0f9190610f13565b5090565b5b80821115610f2c576000816000905550600101610f14565b5090565b600081519050919050565b600082825260208201905092915050565b6000819050602082019050919050565b600081519050919050565b600082825260208201905092915050565b60005b83811015610f96578082015181840152602081019050610f7b565b83811115610fa5576000848401525b50505050565b6000601f19601f8301169050919050565b6000610fc782610f5c565b610fd18185610f67565b9350610fe1818560208601610f78565b610fea81610fab565b840191505092915050565b6000819050919050565b61100881610ff5565b82525050565b6000608083016000830151848203600086015261102b8282610fbc565b915050602083015184820360208601526110458282610fbc565b9150506040830151848203604086015261105f8282610fbc565b91505060608301516110746060860182610fff565b508091505092915050565b600061108b838361100e565b905092915050565b6000602082019050919050565b60006110ab82610f30565b6110b58185610f3b565b9350836020820285016110c785610f4c565b8060005b8581101561110357848403895281516110e4858261107f565b94506110ef83611093565b925060208a019950506001810190506110cb565b50829750879550505050505092915050565b6000602082019050818103600083015261112f81846110a0565b905092915050565b600080fd5b600073ffffffffffffffffffffffffffffffffffffffff82169050919050565b60006111678261113c565b9050919050565b6111778161115c565b811461118257600080fd5b50565b6000813590506111948161116e565b92915050565b6000602082840312156111b0576111af611137565b5b60006111be84828501611185565b91505092915050565b60008115159050919050565b6111dc816111c7565b82525050565b60006020820190506111f760008301846111d3565b92915050565b61120681610ff5565b811461121157600080fd5b50565b600081359050611223816111fd565b92915050565b60006020828403121561123f5761123e611137565b5b600061124d84828501611214565b91505092915050565b600082825260208201905092915050565b600061127282610f5c565b61127c8185611256565b935061128c818560208601610f78565b61129581610fab565b840191505092915050565b6112a981610ff5565b82525050565b600060808201905081810360008301526112c98187611267565b905081810360208301526112dd8186611267565b905081810360408301526112f18185611267565b905061130060608301846112a0565b95945050505050565b600060808301600083015184820360008601526113268282610fbc565b915050602083015184820360208601526113408282610fbc565b9150506040830151848203604086015261135a8282610fbc565b915050606083015161136f6060860182610fff565b508091505092915050565b600060208201905081810360008301526113948184611309565b905092915050565b6113a58161115c565b82525050565b60006020820190506113c0600083018461139c565b92915050565b7f4e487b7100000000000000000000000000000000000000000000000000000000600052602260045260246000fd5b6000600282049050600182168061140d57607f821691505b60208210811415611421576114206113c6565b5b50919050565b7f4e487b7100000000000000000000000000000000000000000000000000000000600052603260045260246000fd5b7f4e487b7100000000000000000000000000000000000000000000000000000000600052600160045260246000fd5b7f4e487b7100000000000000000000000000000000000000000000000000000000600052601160045260246000fd5b60006114bf82610ff5565b91507fffffffffffffffffffffffffffffffffffffffffffffffffffffffffffffffff8214156114f2576114f1611485565b5b60018201905091905056fea2646970667358221220190fb46ab72e0bb806814d95b37f08b72083bdbdec9597d5c82f9887750aefdd64736f6c634300080a0033",
  "immutableReferences": {},
  "source": "// SPDX-License-Identifier: MIT\r\npragma solidity ^0.8.10;\r\n\r\ncontract Voting {\r\n  struct Candidate {\r\n    string name;\r\n    string descUrl;\r\n    string picUrl;\r\n    uint votes;\r\n  }\r\n  mapping(address => bool) public hasVoted;\r\n  Candidate[] public candidates;\r\n  Candidate public winner;\r\n  bool public electionStarted;\r\n  bool public electionEnded;\r\n  address public commissioner;\r\n\r\n  constructor(\r\n    string[] memory names,\r\n    string[] memory descUrls,\r\n    string[] memory picUrls\r\n  ) public {\r\n\r\n    for (uint i = 0; i < names.length; i++) {\r\n      Candidate memory candidate = Candidate({\r\n        name: names[i],\r\n        descUrl: descUrls[i],\r\n        picUrl: picUrls[i],\r\n        votes: 0\r\n      });\r\n      candidates.push(candidate);\r\n    }\r\n    commissioner = msg.sender;\r\n  }\r\n\r\n  modifier hasNotVoted {\r\n    require(!hasVoted[msg.sender]);\r\n    _;\r\n  }\r\n\r\n  modifier isCommissioner {\r\n    require(msg.sender == commissioner);\r\n    _;\r\n  }\r\n  \r\n  function getCandidates() public view returns (Candidate[] memory) {\r\n    return candidates;\r\n  }\r\n\r\n  function getCandidate(uint index) public view returns (Candidate memory) {\r\n    return candidates[index];\r\n  }\r\n\r\n  function voteCandidate(uint index) external hasNotVoted {\r\n    require(electionStarted && !electionEnded);\r\n    candidates[index].votes++;\r\n    hasVoted[msg.sender] = true;\r\n  }\r\n\r\n  function getHasVoted() public view returns (bool) {\r\n    return hasVoted[msg.sender];\r\n  }\r\n\r\n  function startElection() external isCommissioner {\r\n    require(!electionStarted && !electionEnded);\r\n    electionStarted = true;\r\n    assert(electionStarted);\r\n  }\r\n\r\n  function endElection() external isCommissioner {\r\n    require(electionStarted && !electionEnded);\r\n    electionEnded = true;\r\n    setWinner();\r\n  }\r\n\r\n  function setWinner() private {\r\n    require(electionEnded);\r\n    uint winnerIndex = 0;\r\n    uint winnerVotes = 0;\r\n    for (uint i = 0; i < candidates.length; i++) {\r\n      if (candidates[i].votes > winnerVotes) {\r\n        winnerIndex = i;\r\n        winnerVotes = candidates[i].votes;\r\n      }\r\n    }\r\n    winner = candidates[winnerIndex];\r\n  }\r\n  \r\n}",
  "sourcePath": "C:\\Users\\clipp\\OneDrive\\Documents\\Code\\SideProject\\VotingApp\\Contract\\contracts\\Voting.sol",
  "compiler": {
    "name": "solc",
    "version": "0.8.10+commit.fc410830.Emscripten.clang"
  },
  "schemaVersion": "3.4.4",
  "updatedAt": "2022-01-07T03:38:41.595Z",
  "networkType": "ethereum",
  "devdoc": {
    "kind": "dev",
    "methods": {},
    "version": 1
  },
  "userdoc": {
    "kind": "user",
    "methods": {},
    "version": 1
  }
}